:100000000C9462000C948A000C948A000C948A0070
:100010000C948A000C948A000C948A000C948A0038
:100020000C948A000C948A000C948A000C948A0028
:100030000C948A000C948A000C948A000C948A0018
:100040000C94F4020C948A000C948A000C948A009C
:100050000C948A000C948A000C948A000C948A00F8
:100060000C948A000C948A000000000024002700F1
:100070002A0000000000250028002B0000000000DE
:1000800023002600290004040404040404040202DA
:100090000202020203030303030301020408102007
:1000A0004080010204081020010204081020000012
:1000B0000008000201000003040700000000000027
:1000C00000004B0411241FBECFEFD8E0DEBFCDBF30
:1000D00011E0A0E0B1E0E2EEF8E002C005900D9280
:1000E000A833B107D9F721E0A8E3B1E001C01D9220
:1000F000A935B207E1F710E0C2E6D0E004C02197CD
:10010000FE010E946904C136D107C9F70E943E036F
:100110000C946F040C940000AF92BF92CF92DF92C8
:10012000EF92FF920F931F93CF93DF936C017B01AC
:100130008B01040F151FEB015E01AE18BF08C0173D
:10014000D10759F06991D601ED91FC910190F081B0
:10015000E02DC6010995892B79F7C501DF91CF9173
:100160001F910F91FF90EF90DF90CF90BF90AF90D5
:100170000895833081F028F4813099F08230A9F01D
:1001800008958730A9F08830C9F08430B1F48091A7
:1001900080008F7D03C0809180008F7780938000E6
:1001A000089584B58F7784BD089584B58F7DFBCF86
:1001B0008091B0008F778093B00008958091B00057
:1001C0008F7DF9CF1F93CF93DF93282F30E0F90174
:1001D000E255FF4F8491F901E656FF4FD491F901A2
:1001E000EA57FF4FC491CC23A9F0162F81110E942A
:1001F000B900EC2FF0E0EE0FFF1FEE58FF4FA59176
:10020000B4918FB7F894EC91111108C0D095DE230A
:10021000DC938FBFDF91CF911F910895DE2BF8CF34
:10022000CF93DF9390E0FC01E656FF4F24918A576D
:100230009F4FFC0184918823D1F090E0880F991F93
:10024000FC01E859FF4FA591B491FC01EE58FF4F16
:10025000C591D491623071F49FB7F8943C91822F8C
:10026000809583238C93E8812E2B28839FBFDF9179
:10027000CF9108958FB7F894EC912E2B2C938FBFCC
:10028000F6CF3FB7F89480913D0190913E01A09147
:100290003F01B091400126B5A89B05C02F3F19F042
:1002A0000196A11DB11D3FBFBA2FA92F982F8827F6
:1002B000BC01CD01620F711D811D911D42E0660FD1
:1002C000771F881F991F4A95D1F708958F929F92A3
:1002D000AF92BF92CF92DF92EF92FF924B015C01FF
:1002E0000E9441016B017C010E9441016C197D0952
:1002F0008E099F09683E734081059105A8F321E0AE
:10030000821A9108A108B10888EEC80E83E0D81EB1
:10031000E11CF11C81149104A104B10429F7FF90A0
:10032000EF90DF90CF90BF90AF909F908F90089507
:10033000089590E080E00895FC0101900020E9F725
:100340003197AF01481B590BBC0181E491E00C943B
:100350008C00CF93DF93EC0160E08E810E94E2007D
:1003600061E08E810E94E20060E08E810E94E200E6
:100370008BE891E00197F1F7DF91CF910895CF924B
:10038000DF92EF92FF920F931F93CF93DF936C0155
:100390007C0187E0E80EF11CD0E0C0E0062F10E001
:1003A000B8010C2E02C0759567950A94E2F761704A
:1003B000F70181917F010E94E2002196C430D105AE
:1003C00079F7C601DF91CF911F910F91FF90EF90C8
:1003D000DF90CF900C94A901CF92DF92EF92FF9221
:1003E0000F931F93CF93DF93EC01F62E642F8C8134
:1003F0000E94E2008D818F3F19F060E00E94E200D0
:100400000F2D10E08F8584FF25C06E0187E0C80E98
:10041000D11CF12CE12CB8010E2C02C0759567950A
:100420000A94E2F76170F60181916F010E94E20087
:10043000FFEFEF1AFF0A88E0E816F10461F7CE013A
:10044000DF91CF911F910F91FF90EF90DF90CF90B0
:100450000C94A901B80184E0759567958A95E1F738
:10046000CE010E94BF016F2DCE01DF91CF911F9170
:100470000F91FF90EF90DF90CF900C94BF0140E080
:10048000682F81E491E00C94EC0181E00E943F022E
:100490008BE39FE10197F1F70895CF93DF938230CB
:1004A00029F49091500198609093500180935401E9
:1004B0001092550180E48093560180E180935701AA
:1004C00080E58093580161E0809145010E94100110
:1004D000809146018F3F19F061E00E94100161E0B8
:1004E000809147010E941001C1E4D1E09E01215496
:1004F00031408091500184FD0BC084E090E0219652
:100500002817390744F461E08E810E941001EECF74
:1005100088E090E0F4CF8BE39DE00197F1F760E095
:10052000809145010E94E20060E0809147010E94B5
:10053000E200809146018F3F19F060E00E94E200E6
:100540008091500184FD34C063E081E491E00E9419
:10055000BF01CBE4D6E4CE010197F1F763E081E47B
:1005600091E00E94BF012197F1F763E081E491E0FF
:100570000E94BF0183E592E00197F1F762E081E418
:1005800091E00E94BF018091500180620E943F0271
:1005900084E0809351018CE00E943F020E9445025A
:1005A00082E08093520186E0DF91CF910C943F026C
:1005B00080620E943F028BE496E40197F1F78091FC
:1005C000500180620E943F0283E592E00197F1F7BB
:1005D0008091500180620E943F02D5CF41E00E948D
:1005E000EC0181E090E008951F920F920FB60F92F8
:1005F00011242F933F938F939F93AF93BF93809139
:10060000390190913A01A0913B01B0913C013091A8
:10061000380123E0230F2D3758F50196A11DB11D98
:10062000209338018093390190933A01A0933B01C4
:10063000B0933C0180913D0190913E01A0913F011A
:10064000B09140010196A11DB11D80933D01909391
:100650003E01A0933F01B0934001BF91AF919F91A4
:100660008F913F912F910F900FBE0F901F90189573
:1006700026E8230F0296A11DB11DD2CF789484B530
:10068000826084BD84B5816084BD85B5826085BD8E
:1006900085B5816085BD80916E00816080936E001C
:1006A000109281008091810082608093810080910E
:1006B00081008160809381008091800081608093BF
:1006C00080008091B10084608093B1008091B0007F
:1006D00081608093B00080917A00846080937A007A
:1006E00080917A00826080937A0080917A008160A4
:1006F00080937A0080917A00806880937A001092CB
:10070000C10062E087E00E94100182E00E944D0279
:1007100080E40E943F02C0E0D1E008E011E069916E
:1007200081E491E00E94EE020C171D07C1F70E94C0
:10073000450284E191E00E949C01C5EBD0E001EA12
:1007400010E04DE8E42E40E0F42E50E0C52E50E0DD
:10075000D52EFE018491F801A490F701B490B11058
:100760007FC00E94450282E291E00E949C0160ED00
:1007700077E080E090E00E9466010E9445028BE2F3
:1007800091E00E949C0168EE73E080E090E00E949E
:1007900066013DE0A32EB12C88E10E943F0266E98C
:1007A00070E080E090E00E946601F1E0AF1AB108CD
:1007B00099F79DE1A92EB12C8CE10E943F0266E9D8
:1007C00070E080E090E00E94660181E0A81AB10824
:1007D00099F780E1A82EB12C88E10E943F0266E9DA
:1007E00070E080E090E00E946601E1E0AE1AB1089E
:1007F00099F768EE73E080E090E00E9466010E9445
:100800004502B12CA12CE0915401BE1608F441C060
:10081000E150F0E0EF5BFE4F84898A0D80680E9412
:100820003F0260E081E491E00E94EE0268EC70E03B
:1008300080E090E00E946601A394F0E1AF12E3CF64
:1008400081E0B81223C060ED77E080E090E00E9484
:1008500066010E94450284E191E00E949C010FC064
:1008600081110E94B900EB2DF0E0EE0FFF1FE4585C
:10087000FF4FA591B4918C91A82209F472CFC114B5
:10088000D10409F466CF0E94000063CFBB24B39467
:10089000B9CFEB2DBECFE1E4F1E0138212828CE000
:1008A00091E0918380838CE084838FEF85838BE05C
:1008B000868385E0878384E0808783E0818782E088
:1008C00082871386148615861686178681E00C9417
:1008D0004D02EE0FFF1F0590F491E02D0994F8945E
:0208E000FFCF48
:1008E2001F1F1F1F1F1F1F1F00000000EE028C0092
:1008F200990198014C616E6365206C652074657383
:10090200740054657374204C434400456372616EF5
:080912002054657374210000FC
:00000001FF
